:020000040800F2
:100000000020002071010008BD010008BD010008AA
:1000100000000000000000000000000000000000E0
:10002000000000000000000000000000BD0100080A
:100030000000000000000000BD010008BD01000834
:10004000BD010008BD010008BD010008BD01000898
:10005000BD010008BD010008BD010008BD01000888
:10006000BD010008BD010008BD010008BD01000878
:10007000BD010008BD010008BD010008BD01000868
:10008000BD010008BD01000800000000BD0100081E
:10009000BD010008BD010008BD010008BD01000848
:1000A000BD010008BD010008BD010008BD01000838
:1000B000BD01000800000000BD01000800000000B4
:1000C0005FF808F1044B5A69002902D182435A6152
:1000D000704710435861FBE700100240044B9A69D7
:1000E000002902D182439A61704710439861FBE76F
:1000F0000010024008B500F0B7F91949902001231B
:100100000022C0050B608A710B7100F039F90020E4
:10011000412100F0ADFC0120124900F01BFD03203D
:10012000114900F0D3FD0720104900F0B3FE9020E4
:10013000C005012100F082F900F092FF902001211A
:10014000C00500F07DF9002000F038FA012000F031
:10015000B5FA032000F084FB072000F085FCE6E7F9
:1001600004000020D20400004E61BC0019049E3F30
:100170000C488546002103E00B4B5B58435004318B
:100180000A480B4B42189A42F6D30A4A02E000236F
:1001900013600432084B9A42F9D300F0BFF8FFF71E
:1001A000A9FFFEE700200020B41100080000002095
:1001B000000000200000002020000020FEE70000DA
:1001C0000388C122920110B51A40CC890B882343C1
:1001D000CC8823430C8923434C8923438C892343B4
:1001E000134303808288094B13408A88134383801A
:1001F0000B8A04220382038893434A8813430380B3
:10020000828B034B1340838310BDC046FFF0FFFF7A
:10021000FFF7FFFF002904D10388402293430380A6
:1002200070470288402313430380F9E78288034B19
:10023000134083808388194381807047FFEFFFFF5D
:1002400001737047007BC0B27047C0460389C0206D
:10025000C00018407047C04600890840431E9841BE
:10026000C0B27047002382B02949009301930A6805
:1002700080235B021343A02080220B609202C00106
:1002800002E0009B834208D00B6813400193009B5F
:1002900001330093019B002BF3D01D4B1A68802380
:1002A0009B02134006D001230193019B012B05D033
:1002B00002B070470193019B012BF9D1154B1448F3
:1002C00011221A60436880214360436889044360B7
:1002D0004268114B13404360426888235B03134319
:1002E0004360026880235B04134303600368084A89
:1002F0000B42FBD0536803218B43536051680223A8
:100300000B4353600C2153680B40082BFBD1CFE704
:100310000010024000200240FFFFC0FF08B5124B52
:100320000122196811431960586810490140596049
:1003300018680F490140196018680E49014019609A
:1003400058680D4901405960D96A0F208143D9622C
:10035000186B0A4901401963596B91430022596394
:100360009A60FFF77FFF08BD001002400CB8FFF84D
:10037000FFFFF6FEFFFFFBFFFFFFC0FFACFEFFFF2E
:10038000F0B55F46564644464D46F0B483B0019101
:100390000F680321002200230126884603E0013371
:1003A0000232102B2BD0341C9C403D1C2540A54212
:1003B000F5D1019C012124794942A3468C46DC44B5
:1003C0006446012C22D945469540ED430199AC463F
:1003D000056864462540056005685C4694402C43EA
:1003E0000460C46845469540AC43C460CC79C56898
:1003F00094402C430133C4600232102BD3D103B09C
:100400003CBC90469946A246AB46F0BD4446816846
:100410009440E443214081600199A446497984686D
:100420009140214381608188A9438180019984881A
:100430008D799D402543ADB28580C9E781617047C4
:100440000185704707230B40C9088900401810B583
:10045000016A9B000F249C40A1430162016A9A40FB
:10046000131C0B43036210BD802070B58002012174
:10047000FFF728FE802040010121FFF72FFE4B4CA3
:10048000E02323609020022300252371012603230B
:10049000C005211C6371A571E671FFF771FF902003
:1004A000C00505210022FFF7CDFF9020C0050621E1
:1004B0000022FFF7C7FF90200022C0050721FFF7A9
:1004C000C1FF90201023C005211C23602671FFF777
:1004D00057FF3749E023DB008B8082235B004B8092
:1004E00080239B0033484B818D810D81CD800D8011
:1004F000CD81FFF765FE80212E484901FFF796FE6A
:100500002C480121FFF786FE9020C0051021FFF73F
:1005100097FF2848FF21FFF793FE26480221FFF7A7
:100520009BFE0028F9D023488021FFF795FE012883
:10053000F9D02048FFF786FE9020C0051021FFF774
:100540007DFF9020C0051021FFF77AFF1A4B002293
:10055000184801211A70FFF773FE16480221FFF7B1
:100560007BFE0028F9D013488021FFF775FE012893
:10057000F9D01048FFF766FE0E480021FFF760FE35
:100580000C480221FFF768FE0028F9D009488021B5
:10059000FFF762FE0128F9D00648FFF753FE9020CE
:1005A000C0051021FFF74AFF70BDC04604000020BF
:1005B0000C000020003001400000002010B5041C99
:1005C0009020C0051021FFF73BFF02E03A48FFF7FB
:1005D00039FE3948FFF73AFE0028F7D136480321A3
:1005E000FFF72EFE34480221FFF736FE0028F9D02F
:1005F00031488021FFF730FE0128F9D02E48FFF75F
:1006000021FE210CC9B22C48FFF71AFE2A4802210C
:10061000FFF722FE0028F9D027488021FFF71CFEB3
:100620000128F9D02448FFF70DFE210AC9B222485B
:10063000FFF706FE20480221FFF70EFE0028F9D042
:100640001D488021FFF708FE0128F9D01A48FFF75E
:10065000F9FDE1B21848FFF7F3FD17480221FFF753
:10066000FBFD0028F9D014488021FFF7F5FD012893
:10067000F9D01148FFF7E6FD0F48FF21FFF7E0FD35
:100680000D480221FFF7E8FD0028F9D00A48802133
:10069000FFF7E2FD0128F9D007480121FFF7DCFD53
:1006A0000028F9D00448FFF7CDFD9020C0051021A7
:1006B000FFF7C4FE002010BD0030014038B5664D84
:1006C000041C2B78402B31D09020C0051021FFF75F
:1006D000B7FE4023614801212B70FFF7B1FD5F4851
:1006E0000221FFF7B9FD0028F9D05C488021FFF70F
:1006F000B3FD0128F9D05948FFF7A4FD5748402120
:10070000FFF79EFD55480221FFF7A6FD0028F9D00E
:1007100052488021FFF7A0FD0128F9D04F48FFF78C
:1007200091FD9020C0051021FFF788FE9020C005A4
:100730001021FFF785FE02E04848FFF783FD474898
:10074000FFF784FD0028F7D144480321FFF778FD27
:1007500042480221FFF780FD0028F9D03F48802160
:10076000FFF77AFD0128F9D03C48FFF76BFD210C1B
:10077000C9B23A48FFF764FD38480221FFF76CFD23
:100780000028F9D035488021FFF766FD0128F9D00F
:100790003248FFF757FD210AC9B23048FFF750FD34
:1007A0002E480221FFF758FD0028F9D02B48802160
:1007B000FFF752FD0128F9D02848FFF743FDE1B2C9
:1007C0002648FFF73DFD25480221FFF745FD00289B
:1007D000F9D022488021FFF73FFD0128F9D01F48BA
:1007E000FFF730FD1D48FF21FFF72AFD1B480221BE
:1007F000FFF732FD0028F9D018488021FFF72CFDC3
:100800000128F9D015480121FFF726FD0028F9D06D
:100810001248FFF717FD1148FF21FFF711FD0F48A0
:100820000221FFF719FD0028F9D00C488021FFF7BD
:1008300013FD0128F9D009480121FFF70DFD00281B
:10084000F9D00648FFF7FEFC9020C0051021FFF705
:10085000F5FD002038BDC0460000002000300140FA
:1008600038B57F4D041C2B78402B31D09020C0052B
:100870001021FFF7E5FD40237A4801212B70FFF797
:10088000DFFC78480221FFF7E7FC0028F9D0754823
:100890008021FFF7E1FC0128F9D07248FFF7D2FC74
:1008A00070484021FFF7CCFC6E480221FFF7D4FCD2
:1008B0000028F9D06B488021FFF7CEFC0128F9D041
:1008C0006848FFF7BFFC9020C0051021FFF7B6FD78
:1008D0009020C0051021FFF7B3FD02E06148FFF74B
:1008E000B1FC6048FFF7B2FC0028F7D15D48032156
:1008F000FFF7A6FC5B480221FFF7AEFC0028F9D009
:1009000058488021FFF7A8FC0128F9D05548FFF787
:1009100099FC210CC9B25348FFF792FC51480221BF
:10092000FFF79AFC0028F9D04E488021FFF794FC8D
:100930000128F9D04B48FFF785FC210AC9B2494884
:10094000FFF77EFC47480221FFF786FC0028F9D01C
:1009500044488021FFF780FC0128F9D04148FFF787
:1009600071FCE1B23F48FFF76BFC3E480221FFF704
:1009700073FC0028F9D03B488021FFF76DFC01286B
:10098000F9D03848FFF75EFC3648FF21FFF758FCE6
:1009900034480221FFF760FC0028F9D0314880215B
:1009A000FFF75AFC0128F9D02E480121FFF754FC2B
:1009B0000028F9D02B48FFF745FC2A48FF21FFF714
:1009C0003FFC28480221FFF747FC0028F9D02548C2
:1009D0008021FFF741FC0128F9D022480121FFF7CF
:1009E0003BFC0028F9D01F48FFF72CFC1D48FF21D5
:1009F000FFF726FC1B480221FFF72EFC0028F9D048
:100A000018488021FFF728FC0128F9D0154801215A
:100A1000FFF722FC0028F9D01248FFF713FC114819
:100A2000FF21FFF70DFC0F480221FFF715FC0028FE
:100A3000F9D00C488021FFF70FFC0128F9D00948B4
:100A40000121FFF709FC0028F9D00648FFF7FAFB5F
:100A50009020C0051021FFF7F1FC002038BDC046F2
:100A6000000000200030014008B5FFF7F9FE08BD86
:100A700038B5051C9020C0050C1C1021FFF7E0FCC8
:100A800033480221FFF7DCFB31480221FFF7E4FB8A
:100A90000028F9D02E488021FFF7DEFB0128F9D08D
:100AA0002B48FFF7CFFB290CC9B22948FFF7C8FB39
:100AB00027480221FFF7D0FB0028F9D024488021E5
:100AC000FFF7CAFB0128F9D02148FFF7BBFB290A31
:100AD000C9B21F48FFF7B4FB1D480221FFF7BCFB5A
:100AE0000028F9D01A488021FFF7B6FB0128F9D079
:100AF0001748FFF7A7FBE9B21548FFF7A1FB144819
:100B00000221FFF7A9FB0028F9D011488021FFF747
:100B1000A3FB0128F9D00E48FFF794FB0C48211CD9
:100B2000FFF78EFB0A480221FFF796FB0028F9D059
:100B300007488021FFF790FB0128F9D00448FFF710
:100B400081FB9020C0051021FFF778FC38BDC0461E
:100B50000030014070B55B4E051C33780C1C402BF7
:100B600031D09020C0051021FFF76AFC4023564881
:100B700001213370FFF764FB53480221FFF76CFB40
:100B80000028F9D050488021FFF766FB0128F9D0F2
:100B90004D48FFF757FB4C484021FFF751FB4A48AF
:100BA0000221FFF759FB0028F9D047488021FFF7C1
:100BB00053FB0128F9D04448FFF744FB9020C005BF
:100BC0001021FFF73BFC9020C0051021FFF738FCF7
:100BD0003D480221FFF734FB3B480221FFF73CFB75
:100BE0000028F9D038488021FFF736FB0128F9D0DA
:100BF0003548FFF727FB290CC9B23348FFF720FB24
:100C000031480221FFF728FB0028F9D02E48802127
:100C1000FFF722FB0128F9D02B48FFF713FB290A25
:100C2000C9B22948FFF70CFB27480221FFF714FB44
:100C30000028F9D024488021FFF70EFB0128F9D0C5
:100C40002148FFF7FFFAE9B21F48FFF7F9FA1E48FB
:100C50000221FFF701FB0028F9D01B488021FFF794
:100C6000FBFA0128F9D01848FFF7ECFA210A1648D8
:100C7000FFF7E6FA14480221FFF7EEFA0028F9D050
:100C800011488021FFF7E8FA0128F9D00E48FFF754
:100C9000D9FAE1B20C48FFF7D3FA0B480221FFF76B
:100CA000DBFA0028F9D008488021FFF7D5FA01289F
:100CB000F9D00548FFF7C6FA9020C0051021FFF7CC
:100CC000BDFB70BD000000200030014070B56F4ECC
:100CD000051C33780C1C402B31D09020C00510210E
:100CE000FFF7AEFB40236A4801213370FFF7A8FAF3
:100CF00067480221FFF7B0FA0028F9D06448802144
:100D0000FFF7AAFA0128F9D06148FFF79BFA60487B
:100D10004021FFF795FA5E480221FFF79DFA00286F
:100D2000F9D05B488021FFF797FA0128F9D058489D
:100D3000FFF788FA9020C0051021FFF77FFB902075
:100D4000C0051021FFF77CFB51480221FFF778FA1C
:100D50004F480221FFF780FA0028F9D04C48802143
:100D6000FFF77AFA0128F9D04948FFF76BFA290C06
:100D7000C9B24748FFF764FA45480221FFF76CFA09
:100D80000028F9D042488021FFF766FA0128F9D0FF
:100D90003F48FFF757FA290AC9B23D48FFF750FA12
:100DA0003B480221FFF758FA0028F9D03848802143
:100DB000FFF752FA0128F9D03548FFF743FAE9B2B4
:100DC0003348FFF73DFA32480221FFF745FA002881
:100DD000F9D02F488021FFF73FFA0128F9D02C489D
:100DE000FFF730FA210E2A48FFF72AFA2848022195
:100DF000FFF732FA0028F9D025488021FFF72CFAB6
:100E00000128F9D02248FFF71DFA210CC9B2204869
:100E1000FFF716FA1E480221FFF71EFA0028F9D044
:100E20001B488021FFF718FA0128F9D01848FFF76E
:100E300009FA210AC9B21648FFF702FA144802213A
:100E4000FFF70AFA0028F9D011488021FFF704FAC9
:100E50000128F9D00E48FFF7F5F9E1B20C48FFF789
:100E6000EFF90B480221FFF7F7F90028F9D00848FD
:100E70008021FFF7F1F90128F9D00548FFF7E2F9E1
:100E80009020C0051021FFF7D9FA70BD00000020A6
:100E900000300140F8B5704F061C3B780D1C0C1C4F
:100EA000402B31D09020C0051021FFF7C9FA402314
:100EB0006A4801213B70FFF7C3F968480221FFF738
:100EC000CBF90028F9D065488021FFF7C5F9012842
:100ED000F9D06248FFF7B6F960484021FFF7B0F952
:100EE0005E480221FFF7B8F90028F9D05B4880215D
:100EF000FFF7B2F90128F9D05848FFF7A3F990207D
:100F0000C0051021FFF79AFA9020C0051021FFF7C5
:100F100097FA52480221FFF793F950480221FFF750
:100F20009BF90028F9D04D488021FFF795F9012859
:100F3000F9D04A48FFF786F9310CC9B24748FFF7A4
:100F40007FF946480221FFF787F90028F9D0434886
:100F50008021FFF781F90128F9D04048FFF772F9A5
:100F6000310AC9B23D48FFF76BF93C480221FFF74F
:100F700073F90028F9D039488021FFF76DF901286D
:100F8000F9D03648FFF75EF9F1B23448FFF758F967
:100F900032480221FFF760F90028F9D02F4880215C
:100FA000FFF75AF90128F9D02C48FFF74BF9290E21
:100FB0002A48FFF745F929480221FFF74DF9002893
:100FC000F9D026488021FFF747F90128F9D02348B6
:100FD000FFF738F9290CC9B22048FFF731F91F484B
:100FE0000221FFF739F90028F9D01C488021FFF7CA
:100FF00033F90128F9D019482D0AFFF723F9E9B28E
:101000001648FFF71DF915480221FFF725F90028BA
:10101000F9D012488021FFF71FF90128F9D00F48B5
:10102000FFF710F9E1B20D48FFF70AF90B4802216A
:10103000FFF712F90028F9D008488021FFF70CF9D2
:101040000128F9D00548FFF7FDF89020C0051021D0
:10105000FFF7F4F9F8BDC046000000200030014061
:10106000902038B5C0051021FFF7EAF94E4B402219
:101070004E4801211A70FFF7E3F84C480221FFF7B0
:10108000EBF80028F9D049488021FFF7E5F801285E
:10109000F9D04648FFF7D6F844484021FFF7D0F88A
:1010A00042480221FFF7D8F80028F9D03F488021B4
:1010B000FFF7D2F80128F9D03C48FFF7C3F8902099
:1010C000C0051021FFF7BAF99020C0051021FFF7E5
:1010D000B7F936480221FFF7B3F834480221FFF789
:1010E000BBF80028F9D031488021FFF7B5F8012876
:1010F000F9D02E48FFF7A6F82C480021FFF7A0F8FA
:101100002A480221FFF7A8F80028F9D027488021B3
:10111000FFF7A2F80128F9D02448FFF793F82348F5
:101120000021FFF78DF821480221FFF795F80028EC
:10113000F9D01E488021FFF78FF80128F9D01B480D
:10114000FFF780F819480021FFF77AF817480221C5
:10115000FFF782F80028F9D014488021FFF77CF8C7
:101160000128F9D01148FFF76DF8114D0024E1B2C4
:101170000E48FFF765F80D480221FFF76DF80028CB
:10118000F9D00A488021FFF767F80128F9D007480D
:101190000134FFF757F8AC42E9D19020C005102187
:1011A000FFF74CF938BDC046000000200030014078
:0411B000FFFF01003C
:0400000508000000EF
:00000001FF
