:020000040800F2
:100000000020002059010008A5010008A5010008F2
:1000100000000000000000000000000000000000E0
:10002000000000000000000000000000A501000822
:100030000000000000000000A5010008A501000864
:10004000A5010008A5010008A5010008A5010008F8
:10005000A5010008A5010008A5010008A5010008E8
:10006000A5010008A5010008A5010008A5010008D8
:10007000A5010008A5010008A5010008A5010008C8
:10008000A5010008A501000800000000A501000866
:10009000A5010008A5010008A5010008A5010008A8
:1000A000A5010008A5010008A5010008A501000898
:1000B000A501000800000000A501000800000000E4
:1000C0005FF808F1044B5A69002902D182435A6152
:1000D000704710435861FBE700100240044B9A69D7
:1000E000002902D182439A61704710439861FBE76F
:1000F0000010024008B500F0A5F913499020012333
:100100000022C0050B608A710B7100F027F90020F6
:10011000412100F041FA01200C4900F0AFFA032020
:100120000B4900F067FB07200A4900F047FC9020CC
:10013000C005012100F070F900F026FD9020C005F7
:10014000012100F06BF9F2E704000020D204000066
:100150004E61BC0019049E3F0C488546002103E017
:100160000B4B5B58435004310A480B4B42189A42E0
:10017000F6D30A4A02E0002313600432084B9A4285
:10018000F9D300F0B9F8FFF7B5FFFEE70020002033
:10019000DC0C00080000002000000020000000200F
:1001A00020000020FEE700000388C122920110B564
:1001B0001A40CC890B882343CC8823430C892343E2
:1001C0004C8923438C892343134303808288094B42
:1001D00013408A88134383800B8A04220382038896
:1001E00093434A8813430380828B034B13408383DA
:1001F00010BDC046FFF0FFFFFFF7FFFF002904D14D
:1002000003884022934303807047028840231343AE
:100210000380F9E78288034B134083808388194366
:1002200081807047FFEFFFFF01737047007BC0B212
:100230007047C04600890840431E9841C0B27047CD
:10024000002382B02949009301930A6880235B024E
:100250001343A02080220B609202C00102E0009BA9
:10026000834208D00B6813400193009B0133009335
:10027000019B002BF3D01D4B1A6880239B02134077
:1002800006D001230193019B012B05D002B07047DA
:100290000193019B012BF9D1154B144811221A60CF
:1002A0004368802143604368890443604268114B7E
:1002B00013404360426888235B0313434360026832
:1002C00080235B04134303600368084A0B42FBD09E
:1002D000536803218B435360516802230B435360DF
:1002E0000C2153680B40082BFBD1CFE700100240D4
:1002F00000200240FFFFC0FF08B5124B0122196821
:1003000011431960586810490140596018680F4935
:100310000140196018680E490140196058680D497C
:1003200001405960D96A0F208143D962186B0A498C
:1003300001401963596B9143002259639A60FFF79A
:100340007FFF08BD001002400CB8FFF8FFFFF6FE6B
:10035000FFFFFBFFFFFFC0FFACFEFFFFF0B55F46F6
:10036000564644464D46F0B483B001910F680321D0
:10037000002200230126884603E001330232102BBD
:100380002BD0341C9C403D1C2540A542F5D1019C3E
:10039000012124794942A3468C46DC446446012C61
:1003A00022D945469540ED430199AC46056864461F
:1003B0002540056005685C4694402C430460C46891
:1003C00045469540AC43C460CC79C56894402C4305
:1003D0000133C4600232102BD3D103B03CBC904631
:1003E0009946A246AB46F0BD444681689440E4433A
:1003F000214081600199A446497984689140214354
:1004000081608188A9438180019984888D799D408C
:100410002543ADB28580C9E781617047018570478A
:1004200007230B40C9088900401810B5016A9B00DA
:100430000F249C40A1430162016A9A40131C0B43A4
:10044000036210BD802070B580020121FFF73AFEE3
:10045000802040010121FFF741FE4B4CE023236047
:10046000902002230025237101260323C005211CAF
:100470006371A571E671FFF771FF9020C00505213A
:100480000022FFF7CDFF9020C00506210022FFF7D4
:10049000C7FF90200022C0050721FFF7C1FF902071
:1004A0001023C005211C23602671FFF757FF374931
:1004B000E023DB008B8082235B004B8080239B004A
:1004C00033484B818D810D81CD800D80CD81FFF72B
:1004D0006BFE80212E484901FFF79CFE2C4801212C
:1004E000FFF78CFE9020C0051021FFF797FF2848EA
:1004F000FF21FFF799FE26480221FFF79BFE002807
:10050000F9D023488021FFF795FE0128F9D0204833
:10051000FFF78CFE9020C0051021FFF77DFF902093
:10052000C0051021FFF77AFF1A4B0022184801215D
:100530001A70FFF779FE16480221FFF77BFE0028AC
:10054000F9D013488021FFF775FE0128F9D0104833
:10055000FFF76CFE0E480021FFF766FE0C480221F3
:10056000FFF768FE0028F9D009488021FFF762FEF6
:100570000128F9D00648FFF759FE9020C005102148
:10058000FFF74AFF70BDC046040000200C000020A9
:10059000003001400000002038B5051C9020C00547
:1005A0000C1C1021FFF73AFF33480221FFF73CFEF5
:1005B00031480221FFF73EFE0028F9D02E48802165
:1005C000FFF738FE0128F9D02B48FFF72FFE290C42
:1005D000C9B22948FFF728FE27480221FFF72AFE63
:1005E0000028F9D024488021FFF724FE0128F9D003
:1005F0002148FFF71BFE290AC9B21F48FFF714FE66
:100600001D480221FFF716FE0028F9D01A48802164
:10061000FFF710FE0128F9D01748FFF707FEE9B2EF
:100620001548FFF701FE14480221FFF703FE0028DA
:10063000F9D011488021FFF7FDFD0128F9D00E48BF
:10064000FFF7F4FD0C48211CFFF7EEFD0A480221DC
:10065000FFF7F0FD0028F9D007488021FFF7EAFDF9
:100660000128F9D00448FFF7E1FD9020C0051021D2
:10067000FFF7D2FE38BDC0460030014070B55B4E7A
:10068000051C33780C1C402B31D09020C005102164
:10069000FFF7C4FE4023564801213370FFF7C4FD25
:1006A00053480221FFF7C6FD0028F9D050488021A9
:1006B000FFF7C0FD0128F9D04D48FFF7B7FD4C48C2
:1006C0004021FFF7B1FD4A480221FFF7B3FD0028A2
:1006D000F9D047488021FFF7ADFD0128F9D0444803
:1006E000FFF7A4FD9020C0051021FFF795FE902094
:1006F000C0051021FFF792FE3D480221FFF794FD4F
:100700003B480221FFF796FD0028F9D038488021A8
:10071000FFF790FD0128F9D03548FFF787FD290C38
:10072000C9B23348FFF780FD31480221FFF782FD4F
:100730000028F9D02E488021FFF77CFD0128F9D050
:100740002B48FFF773FD290AC9B22948FFF76CFD52
:1007500027480221FFF76EFD0028F9D024488021A8
:10076000FFF768FD0128F9D02148FFF75FFDE9B2E6
:100770001F48FFF759FD1E480221FFF75BFD0028C7
:10078000F9D01B488021FFF755FD0128F9D0184802
:10079000FFF74CFD210A1648FFF746FD14480221D9
:1007A000FFF748FD0028F9D011488021FFF742FDEE
:1007B0000128F9D00E48FFF739FDE1B20C48FFF7E8
:1007C00033FD0B480221FFF735FD0028F9D008481A
:1007D0008021FFF72FFD0128F9D00548FFF726FDFE
:1007E0009020C0051021FFF717FE70BD000000200B
:1007F0000030014070B56F4E051C33780C1C402B47
:1008000031D09020C0051021FFF708FE40236A4830
:1008100001213370FFF708FD67480221FFF70AFD49
:100820000028F9D064488021FFF704FD0128F9D0A1
:100830006148FFF7FBFC60484021FFF7F5FC5E488C
:100840000221FFF7F7FC0028F9D05B488021FFF771
:10085000F1FC0128F9D05848FFF7E8FC9020C005CA
:100860001021FFF7D9FD9020C0051021FFF7D6FD1C
:1008700051480221FFF7D8FC4F480221FFF7DAFC6C
:100880000028F9D04C488021FFF7D4FC0128F9D08A
:100890004948FFF7CBFC290CC9B24748FFF7C4FC15
:1008A00045480221FFF7C6FC0028F9D042488021C4
:1008B000FFF7C0FC0128F9D03F48FFF7B7FC290A31
:1008C000C9B23D48FFF7B0FC3B480221FFF7B2FC3C
:1008D0000028F9D038488021FFF7ACFC0128F9D076
:1008E0003548FFF7A3FCE9B23348FFF79DFC3248D7
:1008F0000221FFF79FFC0028F9D02F488021FFF745
:1009000099FC0128F9D02C48FFF790FC210E2A48C9
:10091000FFF78AFC28480221FFF78CFC0028F9D059
:1009200025488021FFF786FC0128F9D02248FFF7EF
:100930007DFC210CC9B22048FFF776FC1E4802213D
:10094000FFF778FC0028F9D01B488021FFF772FCE4
:100950000128F9D01848FFF769FC210AC9B21648E6
:10096000FFF762FC14480221FFF764FC0028F9D06D
:1009700011488021FFF75EFC0128F9D00E48FFF7EF
:1009800055FCE1B20C48FFF74FFC0B480221FFF782
:1009900051FC0028F9D008488021FFF74BFC0128C2
:1009A000F9D00548FFF742FC9020C0051021FFF761
:1009B00033FD70BD0000002000300140F8B5704FDD
:1009C000061C3B780D1C0C1C402B31D09020C00520
:1009D0001021FFF723FD40236A4801213B70FFF7F8
:1009E00023FC68480221FFF725FC0028F9D0654860
:1009F0008021FFF71FFC0128F9D06248FFF716FCA1
:100A000060484021FFF710FC5E480221FFF712FC0E
:100A10000028F9D05B488021FFF70CFC0128F9D0B1
:100A20005848FFF703FC9020C0051021FFF7F4FCA5
:100A30009020C0051021FFF7F1FC52480221FFF77A
:100A4000F3FB50480221FFF7F5FB0028F9D04D4891
:100A50008021FFF7EFFB0128F9D04A48FFF7E6FBBA
:100A6000310CC9B24748FFF7DFFB46480221FFF7C8
:100A7000E1FB0028F9D043488021FFF7DBFB012888
:100A8000F9D04048FFF7D2FB310AC9B23D48FFF721
:100A9000CBFB3C480221FFF7CDFB0028F9D03948B9
:100AA0008021FFF7C7FB0128F9D03648FFF7BEFBCE
:100AB000F1B23448FFF7B8FB32480221FFF7BAFB26
:100AC0000028F9D02F488021FFF7B4FB0128F9D086
:100AD0002C48FFF7ABFB290E2A48FFF7A5FB294856
:100AE0000221FFF7A7FB0028F9D026488021FFF755
:100AF000A1FB0128F9D02348FFF798FB290CC9B2C4
:100B00002048FFF791FB1F480221FFF793FB0028C5
:100B1000F9D01C488021FFF78DFB0128F9D0194836
:100B20002D0AFFF783FBE9B21648FFF77DFB154856
:100B30000221FFF77FFB0028F9D012488021FFF740
:100B400079FB0128F9D00F48FFF770FBE1B20D489F
:100B5000FFF76AFB0B480221FFF76CFB0028F9D076
:100B600008488021FFF766FB0128F9D00548FFF708
:100B70005DFB9020C0051021FFF74EFCF8BDC0467C
:100B80000000002000300140902038B5C005102141
:100B9000FFF744FC4E4B40224E4801211A70FFF7EC
:100BA00043FB4C480221FFF745FB0028F9D0494898
:100BB0008021FFF73FFB0128F9D04648FFF736FBBD
:100BC00044484021FFF730FB42480221FFF732FB47
:100BD0000028F9D03F488021FFF72CFB0128F9D0ED
:100BE0003C48FFF723FB9020C0051021FFF714FCC1
:100BF0009020C0051021FFF711FC36480221FFF7B5
:100C000013FB34480221FFF715FB0028F9D03148C7
:100C10008021FFF70FFB0128F9D02E48FFF706FBD4
:100C20002C480021FFF700FB2A480221FFF702FBB6
:100C30000028F9D027488021FFF7FCFA0128F9D0D5
:100C40002448FFF7F3FA23480021FFF7EDFA214883
:100C50000221FFF7EFFA0028F9D01E488021FFF7A4
:100C6000E9FA0128F9D01B48FFF7E0FA19480021FA
:100C7000FFF7DAFA17480221FFF7DCFA0028F9D06B
:100C800014488021FFF7D6FA0128F9D01148FFF760
:100C9000CDFA114D0024E1B20E48FFF7C5FA0D4818
:100CA0000221FFF7C7FA0028F9D00A488021FFF790
:100CB000C1FA0128F9D007480134FFF7B7FAAC426E
:100CC000E9D19020C0051021FFF7A6FB38BDC04632
:0C0CD0000000002000300140FFFF010088
:0400000508000000EF
:00000001FF
